:020000040000FA
:10000000D03E00202D030000350300003703000020
:10001000390300003B0300003D0300000000000026
:100020000000000000000000000000003F0300008E
:100030004103000000000000F1040000F70400008C
:1000400047030000490300004B0300004D0300007C
:100050004F0300005103000053030000550300004C
:1000600057030000590300005B0300005D0300001C
:100070005F030000610300006303000065030000EC
:1000800067030000690300006B0300006D030000BC
:100090006F0300007103000073030000750300008C
:1000A00077030000790300007B0300007D0300005C
:1000B0007F0300008103000083030000850300002C
:1000C00087030000890300008B0300008D030000FC
:1000D0008F030000910300009303000095030000CC
:1000E0009703000099030000000000009B0300003C
:1000F0009D0300009F030000A1030000A303000074
:10010000A5030000A7030000A9030000AB03000043
:100110000000000000000000AD030000AF0300007D
:10012000B1030000B3030000B5030000B7030000F3
:10013000B9030000BB030000BD030000BF030000C3
:1001400000000000000000000000000000000000AF
:10015000C1030000C3030000C5030000C703000083
:10016000000000000000000000000000000000008F
:10017000000000000000000000000000000000007F
:10018000000000000000000000000000000000006F
:10019000000000000000000000000000000000005F
:1001A000000000000000000000000000000000004F
:1001B000C9030000CB030000CD030000CF03000003
:1001C000D1030000D3030000D5030000D7030000D3
:1001D000D9030000DB030000DD030000DF030000A3
:1001E000E1030000E3030000E5030000000000005D
:1001F00000000000E7030000E9030000EB0300003B
:10020000ED030000EF03000000000000000000000C
:10021000F1030000F3030000F5030000F703000002
:10022000F9030000FB030000FD030000FF030000D2
:10023000010400000304000005040000070400009E
:10024000090400000B0400000D0400000F0400006E
:10025000110400001304000015040000170400003E
:10026000190400001B0400001D04000000F002F847
:1002700000F04CF80AA090E8000C82448344AAF1F4
:100280000107DA4501D100F041F8AFF2090EBAE8F2
:100290000F0013F0010F18BFFB1A43F001031847BA
:1002A00010420000304200000A4410F8014B14F0E4
:1002B0000F0508BF10F8015B240908BF10F8014BB7
:1002C0006D1E05D010F8013B6D1E01F8013BF9D100
:1002D000641E03D0641E01F8015BFBD19142E4D39C
:1002E000704700000023002400250026103A28BF94
:1002F00078C1FBD8520728BF30C148BF0B60704798
:100300001FB503F0D0FF1FBD10B510BD00F0B5F84C
:100310001146FFF7F5FF03F037FA00F0D3F803B406
:10032000FFF7F2FF03BC00F0DBF800003F48804716
:100330003F480047FEE7FEE7FEE7FEE7FEE7FEE791
:10034000FEE7FEE7FEE7FEE7FEE7FEE7FEE7FEE785
:10035000FEE7FEE7FEE7FEE7FEE7FEE7FEE7FEE775
:10036000FEE7FEE7FEE7FEE7FEE7FEE7FEE7FEE765
:10037000FEE7FEE7FEE7FEE7FEE7FEE7FEE7FEE755
:10038000FEE7FEE7FEE7FEE7FEE7FEE7FEE7FEE745
:10039000FEE7FEE7FEE7FEE7FEE7FEE7FEE7FEE735
:1003A000FEE7FEE7FEE7FEE7FEE7FEE7FEE7FEE725
:1003B000FEE7FEE7FEE7FEE7FEE7FEE7FEE7FEE715
:1003C000FEE7FEE7FEE7FEE7FEE7FEE7FEE7FEE705
:1003D000FEE7FEE7FEE7FEE7FEE7FEE7FEE7FEE7F5
:1003E000FEE7FEE7FEE7FEE7FEE7FEE7FEE7FEE7E5
:1003F000FEE7FEE7FEE7FEE7FEE7FEE7FEE7FEE7D5
:10040000FEE7FEE7FEE7FEE7FEE7FEE7FEE7FEE7C4
:10041000FEE7FEE7FEE7FEE7FEE7FEE7FEE7000099
:1004200004480549034A054B70470000DD360000CB
:100430006D020000D03C0020D03E0020D03C0020C7
:1004400072B6704762B67047EFF3108072B67047AD
:1004500080F31088704730BF704720BF7047B0FAF4
:1004600080F0704790FAA0F0B0FA80F0704790FAF0
:10047000A0F07047704770477047754600F02CF841
:10048000AE4605006946534620F00700854618B081
:1004900020B5FFF7C5FFBDE820404FF000064FF044
:1004A00000074FF000084FF0000B21F00701AC46A9
:1004B000ACE8C009ACE8C009ACE8C009ACE8C009C8
:1004C0008D46704710B50446AFF300802046BDE866
:1004D0001040FFF724BF000000487047703C002028
:1004E00001491820ABBEFEE726000200704700005D
:1004F00000F069B8FEE701F04DBCFEE7EFF30981BB
:1005000041B1F1EE101A40F8041D20ED200A4149D6
:100510000A6810607047B0EC200A02C8E1EE101AB9
:100520003D490A681060704772B64EF62250CEF20E
:10053000000040F2FF01C0F2000101704EF6885049
:10054000CEF2000041F4700101604EF63470CEF23C
:100550000000016821F04041016040F29400C2F2C5
:100560000000016881F3088840F2D600C2F2000062
:1005700040F2D701C2F200010A78027040F2401541
:10058000C2F2000540F24411C2F200010A682A607A
:10059000106880F309884FF0020080F31488BFF3DD
:1005A0006F8FBDE8F00F0FBCBDE8005006BC62B60F
:1005B00008471A484FF080510160704717484FF0C4
:1005C00080510160704772B6EFF3098020E9F00FA7
:1005D00040F24015C2F200052E683060744601F00A
:1005E000FFFA40F2D600C2F2000040F2D701C2F298
:1005F00000010A78027040F24411C2F200010A6858
:100600002A6044F0F40E1068B0E8F00F80F3098817
:1006100062B67047400100204401002004ED00E074
:100620003448006840F010003249086000BF32488A
:10063000006800F010000028F9D03048006820F071
:1006400010002E4908602D482030006840F010004E
:100650002A49203108602A48006820F01000284903
:10066000086027480C30006840F0100024490C3125
:10067000086020483030006840F001001D493031EA
:10068000086000BF1C483030006800F001000028FE
:10069000F8D01C48006820F00F001A49086008468E
:1006A000006840F00100086040F22310164908621B
:1006B0000846006820F0080008600846406920F4F9
:1006C000704048611048A030006800F00F00C1F889
:1006D000A0000846D0F8A00009300B49A0310860FE
:1006E00006200949C1F8A4000846006840F0080047
:1006F0000860704708E60F4008EA0F4000440240D7
:100700001C450240C48F0340008003400821094A71
:10071000916200BF0749496801F008010029F9D03A
:100720000449A8310968C1F30B000821014AD160CE
:100730007047000000800340FFF772FF06E0FFF7FC
:10074000E5FF03490860034800F0C8FDF7E7000033
:1007500060000020000000208AB0334803210022FE
:100760000592CDE9062108908021304BCDE9013278
:1007700001201346CDE9031200902D4A2DA13248E5
:1007800000F010FF2848032100220592CDE9062140
:10079000089080212D4BCDE9013201201346CDE98F
:1007A000031200902A4A2BA12F4800F0FBFE1E489E
:1007B000032100220592CDE90621089080212B4BD0
:1007C000CDE9013201201346CDE903120090284AF9
:1007D00028A12C4800F0E6FE1348032100220592D0
:1007E000CDE9062108908021274BCDE90132012077
:1007F0001346CDE903120090244A25A1264800F0B3
:10080000D1FE10E0254800680021401C894102DB30
:1008100000202249086021480068401C1F490860E8
:10082000014800F05BFDEDE7000000200805002016
:1008300039070000414443203020534551203320E4
:100840005441534B0000000008020020080900201A
:100850006D340000494E5645525445522050574D74
:100860002026205350574D00C8020020080B0020BE
:10087000B1080000494E56455254455220504C4C48
:100880000000000088030020080D0020A1080000DF
:100890004D50505400000000480400208800002003
:1008A00002E0024800F01AFDFBE700000000002013
:1008B0002DED088B22E19248006802F05BFF0546AF
:1008C000904890ED000B51EC100B03F0D5F9044665
:1008D00002F050FF45408C4805708C4890ED000AAE
:1008E0008B48007800F03CF98A4880ED000A8A487D
:1008F000006800EE100AB8EEC00A8648D0ED000A83
:1009000020EE200A10EE101A084603F05BFC41ECC2
:10091000100B824880ED000B814890ED000A10EE2C
:10092000100A03F04FFC41EC180B7C4890ED000BD3
:1009300053EC102B51EC180B03F01AFA41EC100B8E
:10094000784880ED000B90ED000B53EC102B90EDF0
:10095000000B51EC100B03F00BFA41EC180B9FED60
:10096000720B53EC102B03F02FF841EC100B704876
:1009700080ED000B90ED000B53EC102B9FED6D0BF9
:1009800051EC100B02F06CFF41EC180B684890ED35
:10099000000B53EC102B9FED670B51EC100B03F089
:1009A00027FB41EC190B53EC182B03F00DF841EC2D
:1009B000100B624880ED000B5D4890ED000B53EC8E
:1009C000102B9FED5C0B51EC100B02F049FF41EC3A
:1009D000180B53EC182B534890ED000B51EC100BF7
:1009E00002F0F2FF41EC100B554880ED000B55482A
:1009F00090ED000B53EC102B514890ED000B51EC97
:100A0000100B03F0B5F941EC180B3E4890ED000BCC
:100A100053EC102B494890ED000B51EC100B03F0F8
:100A2000A7F941EC190B53EC182B02F019FF41EC1C
:100A3000100B454880ED000B9FED440B53EC102B41
:100A4000384890ED000B51EC100B02F0BDFF41EC6B
:100A50001A0B3D4890ED000B53EC102B51EC1A0B88
:100A600003F086F941EC180B9FED380B53EC102B7B
:100A70002C4890ED000B51EC100B02F0A5FF41EC5F
:100A80001B0B204890ED000B53EC102B51EC1B0B73
:100A900003F06EF941EC1A0B2A4890ED000B53EC71
:100AA000102B51EC1A0B03F097FA41EC190B53EC95
:100AB000182B03F09DFA41EC100B264880ED000B3B
:100AC00090ED000B244880ED000B224890ED000BC8
:100AD0001C4880ED000B1C4890ED000B094880ED90
:100AE000000B0C4890ED000A084880ED000A06480B
:100AF000007807490870194800F0F0FBDBE60000B9
:100B00006000002050000020020000200C000020A7
:100B1000030000200800002004000020180000202E
:100B20001000002020000020000000000000104005
:100B300028000020000000000000F03F30000020EE
:100B40003800002058000020400000200000000075
:100B5000000000404800002070000020000000203D
:100B600010B52DED0A8B0446B0EE408A00EE104A17
:100B7000B8EE400A30EE480A10EE101A084603F0AC
:100B800021FB41EC1C0B9FED0D0B53EC102B03F0E4
:100B9000EFF841EC1A0B18EE100A03F013FB41ECCE
:100BA0001B0B53EC1A2B02F05BFE41EC190B02F00D
:100BB00025FE00EE100ABDEC0A8B10BDFCA9F1D297
:100BC0004D62503F7047000010B50348006810B1F7
:100BD00001480068804710BDA800002070B5044699
:100BE00000F0B8F800203E4908703E4908703E49C0
:100BF00008703E4908603E4908603E4908703E4919
:100C000008703E4908703E4800680A21B0FBF1F0C8
:100C10003C4908603C48056845B13C48066803E02B
:100C2000761E002028602D1D002EF9D100203849A5
:100C30000860384908603849086038490860384910
:100C4000086038490860384908603849087001F080
:100C5000D1FB01F0FFFB00203549086035490880D1
:100C6000204601F0E1F9208800B170BD204601F076
:100C7000E7F9208800B1F8E700202F4908602F49E4
:100C800008802F4908602F4908802F4908602F49A4
:100C90000880204601F064FF208800B1E5E7204687
:100CA00001F08AF9208800B1DFE7204602F072FAED
:100CB000208800B1D9E7204601F048FE208800B125
:100CC000D3E7204602F0CAFA208800B1CDE701F050
:100CD0007DF8FFF777FF01201D49087000BFC4E7CA
:100CE000BC000020BD000020DE00002040010020EC
:100CF00044010020D6000020D7000020E40000209E
:100D00001C430000E0000020E8420000EC4200002C
:100D10009C000020A0000020A4000020A8000020CB
:100D2000AC000020B0000020B40000200E01002024
:100D3000C0000020C4000020D0000020D40000200B
:100D4000D8000020DC000020E8000020EC0000209B
:100D5000BE000020064800680649096800EB8100D3
:100D6000054908600846006820F0070008607047E1
:100D7000E8420000EC4200009400002010B500247E
:100D80002C480078012800D010BD00BFFFF75CFBA5
:100D9000044600BF2848007828B900BF2046FFF766
:100DA00057FB00BFF0E724480078401E2249087036
:100DB0000846007828B100BF2046FFF749FB00BF76
:100DC000E2E71E48007828B100BF2046FFF740FB4D
:100DD00000BFD9E701F002FB194908700846007806
:100DE00000EB4000174951F82000174908600846F9
:100DF000006816490968884205D100BF2046FFF700
:100E000027FB00BFC0E710480068D0F89000401CE6
:100E10000D490968C1F890000D480068401C0C4954
:100E20000860FFF7CBFB00BF2046FFF711FB00BFB8
:100E300000BFA9E7BD000020BC000020DE000020AC
:100E4000D700002084380020440100204001002009
:100E5000040100202DE9F04104460D461646002706
:100E600000BF00BFFFF7F0FA074600BF00BF0F4802
:100E70002060656000202062606284F8280004F130
:100E8000080001F0E7F9204601F00EF90848008853
:100E9000401C0749088000BF00BF3846FFF7D8FA5A
:100EA00000BF00BF00203080BDE8F0814D55545890
:100EB000D40000202DE9F04788B004460F46904644
:100EC0009A46109D4FF0000900BF00BFFFF7BCFA23
:100ED000814600BF00BF94F82800B0B952480068AE
:100EE0006062012084F8280021464F48006801F024
:100EF000F3F800BF00BF4846FFF7AAFA00BF00BFE3
:100F00000020288008B0BDE8F0874749606A09687A
:100F100088421ED194F82800FF280AD100BF00BFE4
:100F20004846FFF795FA00BF00BF45F2847028805D
:100F3000E8E794F82800401C84F8280000BF00BFB0
:100F40004846FFF785FA00BF00BF45F2827028804F
:100F5000D8E708F4004050B100BF00BF4846FFF793
:100F600077FA00BF00BF46F2B0102880CAE72F48CA
:100F7000007850B100BF00BF4846FFF769FA00BFD4
:100F800000BF46F663502880BCE7666A96F83700D3
:100F90002549096891F83710884206DD2248006823
:100FA00090F83710304601F04DFD3B4604222146B3
:100FB00001A801F0B9F800BF00BF4846FFF748FAA2
:100FC00000BF00BF00F0DAF800BF00BFFFF73CFA37
:100FD000814600BF00BF1448006890F8350030B16A
:100FE000012807D002280DD003280FD106E00020E9
:100FF00028800FE046F2A91028800BE047F2D920A4
:10100000288007E045F6C250288003E046F62E60AF
:10101000288000BF00BF00BF00BF4846FFF718FA96
:1010200000BF00BF00BF6DE740010020DE000020D0
:101030002DE9F84F0446894616464FF0000B00BFD5
:1010400000BFFFF701FA834600BF00BF4949606A4D
:10105000096888420BD000BF00BF5846FFF7F8F977
:1010600000BF00BF45F281703080BDE8F88F4FF0BF
:10107000000A14F8280F401E207014F8280950B1F7
:1010800000BF00BF5846FFF7E3F900BF00BF45F2BD
:1010900083703080E9E721463648006801F036F871
:1010A00004F10808D8F8000068B90020606284F8EC
:1010B000280000BF00BF5846FFF7CAF900BF00BFB5
:1010C00000203080D1E72B48006890F8370029498C
:1010D000096891F83810884228D02648006800F046
:1010E000FFFF05462348006890F83810A94204DA4B
:1010F0002048006890F8380000E0284605461D4862
:10110000006890F83700A84210DA1A48006801F029
:1011100027FA1848006880F83750284601F076F919
:101120001448006801F0DEF913480570D8F8000093
:1011300087686762012084F828002146384600F05D
:10114000CBFF00231A4639462046CDF800A001F017
:10115000F3F800BF00BF5846FFF77AF900BF00BFA1
:1011600009F4004008B900F009F80020308000BF01
:101170007BE7000040010020D600002010B50024CD
:101180001F48007800B110BD1E48007800B1FAE792
:1011900000BFFFF759F9044600BF01F01FF91A49D3
:1011A00008700846007800EB4000184951F820000C
:1011B000174908600846006816490968884205D141
:1011C00000BF2046FFF744F900BFDCE71048006885
:1011D000D0F89000401C0E490968C1F890000E48F4
:1011E0000068401C0C490860FFF7E3F900BF204687
:1011F000FFF72EF900BFBFF36F8F00BFC3E70000FA
:10120000BC000020DE000020D70000208438002031
:1012100044010020400100200401002070B5044674
:10122000002513480078012803D045F68960208006
:1012300070BD10480078FA2803D345F209202080B9
:10124000F6E700BF00BFFFF7FFF8054600BF00BF8D
:1012500008480078401C0749087000BF00BF2846B6
:10126000FFF7F6F800BF00BF0020208000BFDFE7D7
:10127000BD000020DE0000202DE9F04105460C46AF
:101280001646002700BF00BFFFF7DEF8074600BF85
:1012900000BF012D03D000200D49087002E001209D
:1012A0000B49087014B10B48046006E00A48006856
:1012B0000A21B0FBF1F00749086000BF00BF3846C3
:1012C000FFF7C6F800BF00BF00203080BDE8F08106
:1012D000E4000020E00000201C4300002DE9F04164
:1012E000044600272248007820B146F6635020804B
:1012F000BDE8F0811F480078012803D046F67B1036
:101300002080F5E700BF00BFFFF79EF8074600BF4B
:1013100000BF1948007800EB4000184901EB800538
:10132000D5E9000188420AD100BF00BF3846FFF767
:101330008FF800BF00BF46F67A102080D8E7284615
:1013400001F0EEF82E68706D18B90D480068B065B0
:1013500001E0706DB06500BF00BF3846FFF778F858
:1013600000BF00BFFFF70AFF0020208000BFBFE7DB
:10137000DE000020E4000020D60000208438002099
:10138000E000002070B5044600251B4800780128C5
:1013900003D045F68960208070BD1848007818B9E0
:1013A00046F664502080F7E700BF00BFFFF74CF817
:1013B000054600BF00BF11480078401E0F49087065
:1013C0000846007850B100BF00BF2846FFF740F83C
:1013D00000BF00BF46F663502080DDE700BF00BFBE
:1013E0002846FFF735F800BF00BFFFF7C7FE002013
:1013F000208000BFD0E70000BD000020DE000020FC
:1014000070B504461D480078012803D045F68B606E
:10141000208070BD00256D1C6D1C6D1C6D1C184856
:101420000088A84203DC45F68C602080F1E715486F
:101430000078E8B900F0D2FF134908700846007838
:10144000124908701048007800EB4000104951F82C
:10145000200010490860084600680F490860012014
:1014600008490870FFF760F843F69920208002E0F1
:1014700045F68A60208000BFCBE70000BE00002058
:101480000C010020BD000020D7000020D600002065
:101490008438002044010020400100202DE9F04163
:1014A00007464FF0000800BF00BFFEF7CDFF8046A3
:1014B00000BF00BF0020324908803249088100BFC8
:1014C00000BF4046FEF7C4FF00BF00BF00BF00BF23
:1014D000FEF7BAFF804600BF00BF2B48046800BF7C
:1014E00000BF4046FEF7B4FF00BF00BF1CE000BFD6
:1014F00000BFFEF7A9FF804600BF00BF002044F8F0
:10150000780F2063A061A082E0826062A062783CD4
:1015100004F16406B081D4F8B84000BF00BF404673
:10152000FEF796FF00BF00BF002CE0D100BF00BF58
:10153000FEF78AFF804600BF00BF1448056800BF61
:1015400000BF4046FEF784FF00BF00BF12E000BFAF
:1015500000BFFEF779FF804600BF00BF05F12006FF
:101560000020B081AD6900BF00BF4046FEF770FFAC
:1015700000BF00BF002DEAD100203880BDE8F08117
:10158000F20000207838002008010020D800002058
:1015900010B50348006810B101480068804710BDCD
:1015A000AC0000202DE9FF4F85B004469146DDE9EF
:1015B000196A139D0020039012981F2809D14F48E3
:1015C000844206D046F27320AAF8000009B0BDE8B4
:1015D000F08F204601F0D4FA0020AAF8000006F0AF
:1015E000010010B906F0020070B106F0020058B117
:1015F0002F464FF0000B04E0002038603F1D0BF138
:10160000010B15988345F7D3149805EB80000490DF
:101610001598CDE900062A464846049B089900F033
:101620007DF90746AF4204D246F62C60AAF80000C6
:10163000CCE7C4F828900898E0620698A060129859
:1016400084F83700129884F8380027600498E06026
:1016500017986065179818B929480068A06501E0D7
:101660001798A06518986060656215982064A4F8C2
:1016700044604FF0000808E0002104F17C0040F8CD
:10168000281008F1010000F0FF08B8F1000FF3D0B6
:1016900004F16400169900F0FFFC204600F036F8D3
:1016A00000BF00BFFEF7D0FE039000BF00BF94F85C
:1016B000370000F0ABFE204600F014FF204601F09A
:1016C00037FA10480088401C0E4908800E48007800
:1016D000012807D000BF00BF0398FEF7B9FE00BF86
:1016E00000BF73E700BF00BF0398FEF7B1FE00BF65
:1016F00000BFFFF743FD00BF68E70000B8370020D8
:10170000E00000200C010020BD00002010B50446C0
:101710000348006818B1204601490968884710BD90
:101720009C00002010B504460348006818B120460C
:1017300001490968884710BDA40000202DE9F04741
:1017400006460F4691461C464FF0000800BF00BFFA
:10175000FEF77AFE804600BF00BF3A480068806C02
:10176000A8B138480068806C401E36490968886412
:1017700034480068856C00BF00BF4046FEF768FE35
:1017800000BF00BF002020802846BDE8F08707F496
:10179000004058B100BF00BF4046FEF759FE00BFF1
:1017A00000BF46F2B01020800020EEE72648007807
:1017B00058B100BF00BF4046FEF74AFE00BF00BF61
:1017C00046F6635020800020DFE7334607220021E1
:1017D000084600F0A9FC00BF00BF4046FEF738FEF7
:1017E00000BF00BFFFF7CAFC00BF00BFFEF72CFE22
:1017F000804600BF00BF1348006890F8350020B154
:10180000012805D003280BD106E0002020800BE042
:1018100046F2A910208007E047F2D920208003E09B
:1018200046F62E60208000BF00BF06480068856C29
:1018300000BF00BF4046FEF70BFE00BF00BF2846BA
:10184000A3E7000040010020DE0000202DE9F04168
:1018500005460E4614464FF00008234642463146E0
:10186000284601F0F9F907463846BDE8F081000046
:101870002DE9F04704460D4616461F464FF0000A74
:1018800000BF00BFFEF7E0FD824600BF00BF0CB9FD
:1018900021480468206870B900BF00BF5046FEF7B9
:1018A000D7FD00BF00BF00202860306047F2521013
:1018B0003880BDE8F08794F8440000F0010068B972
:1018C00000BF00BF5046FEF7C3FD00BF00BF0020B1
:1018D0002860306047F254103880EAE700BF00BF4C
:1018E0005046FEF7B5FD00BF00BF4FF00008D4F82A
:1018F000249003E009F1040908F10108D9F8000077
:101900000028F7D0C5F80080206CA0EB08003060FC
:101910000020388000BFCCE740010020F0B504462D
:10192000DDE9055602EB850020F007004FF0807CD2
:10193000071F3846C7F800C0071F38463C60DFF86D
:1019400034C2071F3846C7F800C04FF0123C071FCB
:101950003846C7F800C04FF0033C071F3846C7F8A9
:1019600000C04FF0023C071F3846C7F800C0071FF1
:1019700038463B60071F384639604FF0113C071F5F
:101980003846C7F800C04FF0103C071F3846C7F86C
:1019900000C04FF0093C071F3846C7F800C04FF0A1
:1019A000083C071F3846C7F800C04FF0073C071F28
:1019B0003846C7F800C04FF0063C071F3846C7F846
:1019C00000C04FF0053C071F3846C7F800C04FF075
:1019D000043C071F3846C7F800C006F00407002F74
:1019E0007ED04FF0007C071F3846C7F800C0DFF8F4
:1019F00088C1071F3846C7F800C0DFF880C1071F3D
:101A00003846C7F800C0DFF878C1071F3846C7F866
:101A100000C0DFF870C1071F3846C7F800C0DFF804
:101A200068C1071F3846C7F800C0DFF860C1071F4C
:101A30003846C7F800C0DFF858C1071F3846C7F856
:101A400000C0DFF850C1071F3846C7F800C0DFF8F4
:101A500048C1071F3846C7F800C0DFF840C1071F5C
:101A60003846C7F800C0DFF838C1071F3846C7F846
:101A700000C0DFF830C1071F3846C7F800C0DFF8E4
:101A800028C1071F3846C7F800C0DFF820C1071F6C
:101A90003846C7F800C0DFF818C1071F3846C7F836
:101AA00000C04FF0834C071F3846C7F800C0DFF86E
:101AB00004C1071F3846C7F800C0DFF8FCC0071F85
:101AC0003846C7F800C0DFF8F4C0071F3846C7F82B
:101AD00000C0DFF8ECC0071F3846C7F800C000E0C0
:101AE00047E0DFF8E0C0071F3846C7F800C0DFF85E
:101AF000D8C0071F3846C7F800C0DFF8D0C0071F9E
:101B00003846C7F800C04FF0824C071F3846C7F868
:101B100000C0DFF8BCC0071F3846C7F800C0DFF8B8
:101B2000B4C0071F3846C7F800C0DFF8ACC0071FB5
:101B30003846C7F800C04FF0814C071F3846C7F839
:101B400000C0DFF898C0071F3846C7F800C04FF044
:101B5000804C071F3846C7F800C04FF07E5C071F57
:101B60003846C7F800C04FF0000C071F3846C7F8CA
:101B700000C0F0BD352C00000000F8410000F0412D
:101B80000000E8410000E0410000D8410000D041E1
:101B90000000C8410000C0410000B8410000B04151
:101BA0000000A8410000A0410000984100009041C1
:101BB0000000884100007041000060410000504179
:101BC0000000404100003041000020410000104171
:101BD0000000E0400000C0400000A0400000404085
:101BE00010B52048006890F8440000F0040020B1CF
:101BF0001C4909680868FEF781FC1B48006890F8DA
:101C0000440000F0040020B1174909680868FEF795
:101C100082FC1648006810B1144800688047002410
:101C20001048006810490968884215D00D480068BE
:101C3000D0F89800201A0B490968C1F894000948A7
:101C40000068D0F89C0007490968D1F8941008444E
:101C500004490968C1F89C0003480068C0F898402E
:101C600010BD00004001002044010020B000002011
:101C70002DE9F04105460E4614460027224800781B
:101C800020B146F663502080BDE8F08136B1022EC7
:101C900005D0042E0AD0082E09D101E000BF00BFF4
:101CA0001DB947F27E202080EEE704E003E045F610
:101CB00025602080E8E700BF00BF00BFFEF7C4FB3F
:101CC000074600BF00BF2346324629460F4800683A
:101CD00001F0E8F8208838B100BF00BF3846FEF7B1
:101CE000B7FB00BF00BFCFE70848006800F038FC32
:101CF00000BF00BF3846FEF7ABFB00BF00BFFFF7D9
:101D00003DFA00BFC0E70000DE00002040010020D7
:101D100008B514480078012800D008BD00F030F85C
:101D20006A4600211048FFF791FD1049097801EB40
:101D300041010F4A02EB810000F040FC0D480068B1
:101D4000401E0C4908600846006840B90A4800680F
:101D500008606A4600210948FFF778FD00BF00BF10
:101D6000DBE70000BD000020C43A0020D6000020C0
:101D7000843800203C01002038010020B03B0020C6
:101D800010B50348006810B101480068804710BDD5
:101D9000B400002010B5002400BF00BFFEF754FBC4
:101DA000044600BF00BF08480078401C0649087080
:101DB00000BF00BF2046FEF74BFB00BF00BFFFF790
:101DC000A7FFFEF7DBFF10BDBC000020244A254919
:101DD000254A264A2649274A2748284A284A294A7E
:101DE000294A2A482A482B4A2B482C4A2C482D4A53
:101DF0002D482E482E482F482F4A304A304A314825
:101E0000314A324A324833483348344834483548F6
:101E10003548364A364A374A374A384838483948C2
:101E2000394A3A4A3A4A3B483B483C483C493D4893
:101E30003D4A3E4A3E4A3F4A3F4A404A404A41485C
:101E4000414A424A42484348434A444A4448454A30
:101E5000454A4648464800BF00BF00BF70470000E3
:101E600050430000AC4400005143000052430000C6
:101E700054430000584300005C43000059430000F5
:101E8000804300008143000082430000844300003F
:101E9000864300008A4300008C430000AC430000EE
:101EA000AE430000B0430000B2430000B443000062
:101EB000B6430000B8430000E4430000E5430000DF
:101EC000E6430000E8430000EA430000EB43000063
:101ED000EC430000EE430000F0430000F24300003A
:101EE000F4430000F6430000F843000028440000DB
:101EF000294400002A4400002B4400002C44000028
:101F00002E440000304400005444000055440000BA
:101F10005644000057440000584400005A44000052
:101F20005C44000060440000614400006244000022
:101F300063440000644400006544000066440000FF
:101F400067440000684400006A4400006B440000DD
:101F50006C4400006E4400007044000071440000B6
:101F600074440000A4440000A5440000A6440000FE
:101F7000A8440000002419E000BF00BFFEF764FA87
:101F8000044600BF00BF0A480068401C08490860BA
:101F900008480068401C0749086000BF00BF204691
:101FA000FEF756FA00BF00BFFEF70EFEE4E70000A2
:101FB000B8000020F400002010B58AB004460020CC
:101FC0000E4908600B2000210591CDE90704069118
:101FD00008460B4909680B4A12680B4B1B68CDE990
:101FE0000132CDE903101F200023084A08A1009008
:101FF0000C48FFF7D7FA0AB010BD0000B800002067
:10200000C4420000C0420000BC420000751F000036
:1020100075432F4F532D4949492049646C6520541D
:1020200061736B00B83700200021034A1160034A36
:102030001180018070470000C8000020CC00002003
:1020400070B50246114D286829680C31104D2D8855
:102050006D1EACB2002307E00160002545600581DC
:102060000C300C315D1CABB2A342F5DB00250560E2
:1020700045600581054D2D68064E3560044D2D885F
:10208000B5800025F5803581158070BDFC420000CB
:10209000F4420000783800200181002242818281D0
:1020A000026042607047000009A1C16100214161E6
:1020B0000849096811B90021816105E005490968ED
:1020C000816104490968486102490860704700005D
:1020D00020000000D0000020C26B0A62C16370477C
:1020E00030B504461F2004F13C010BE00D68AB68DD
:1020F0002BB19D6895F83720824200DA10460D68B2
:1021000005F120010D68002DF0D130BD024602F12D
:102110003C0002E0036803F1200003688B42F9D120
:1021200003681B6A036070472DE9F04105460C46C1
:1021300016461F461348006880F834600020114995
:10214000096881F8350039460E48006800F064FCE3
:102150006CB104F10808EC600122294609480068C6
:1021600000F012F82946404600F079F803E000201C
:1021700004490968086303480168204600F00EF826
:10218000BDE8F08140010020016300234B600B603B
:102190000B614B610B8388607047000030B548B11C
:1021A0004568C1F8BC5000F10804226893689D6836
:1021B000C56113E091F83450022D02D0072D08D1EB
:1021C00003E007A5C1F8BC5007E007A5C1F8BC5063
:1021D00003E008A5C1F8BC5000BF00BF30BD00003F
:1021E0005461736B205100005461736B2053656D13
:1021F000000000002000000030B507A5C1F8BC5069
:1022000000F1080422681AB193689D68C56101E075
:1022100001A5C56130BD0000200000002DE9F0419E
:102220000646346B012711E0D4F80C8008F108054C
:102230002868406838B12146284600F05CF82146FD
:10224000284600F00CF81C34781E87B2002FEBD122
:10225000BDE8F08100210160416001817047F0B567
:102260008E6896F8375007683FB901270781002725
:102270004F600F600160416023E007897F1C078188
:10228000026806E0946894F83770AF4200DD02E01F
:102290005268002AF6D100BF32B900274F60436868
:1022A0000B60596041600CE017682FB9116000277E
:1022B0000F604A60016004E013680B604A60596077
:1022C0001160F0BD2DE9F0410446206B88B1256B0B
:1022D00001260AE0D5F80C8008F10807294638469F
:1022E00000F009F81C35701E86B2002EF2D10020D5
:1022F0002063BDE8F08110B5046864681CB900244F
:102300000460446011E00C6824B94B6800241C6030
:1023100003600AE04C6824B90A68002454604260F3
:1023200003E00A684B6853601A600489641E0481E4
:1023300000244C600C6010BD2DE9F04105460C46B0
:1023400016461F46DDF8188094F83600082841D25A
:10235000DFE800F0040508090607252600BF00BFD6
:1023600000BF38E000BFE665A4F8607035B12046D4
:10237000FFF7A8FF21462846FFF73EFF94F83600F6
:10238000032802D1204600F0E1FD204600F074F859
:1023900000203434A070607004F834091BE000BFE2
:1023A000E665A4F8607035B12046FFF78BFF214643
:1023B0002846FFF721FF94F83600072802D120466F
:1023C00000F0C4FD04203434A0700020607004F8D4
:1023D000340900E000BF00BFBDE8F08170B5002403
:1023E000034D2868FEF73BF82044C4B2204670BD78
:1023F00098000020002004E00021034A42F8201049
:10240000401C0028F8D070479800002030B500220A
:1024100003460121C3F11F04A140044C54F822409B
:102420000C43024D45F8224030BD000098000020CA
:1024300030B5002203460121C3F11F04A140044C22
:1024400054F822408C43024D45F8224030BD000034
:1024500098000020002109E001EB4102054B03EB4D
:1024600082000022028102604260491C2029F3D3CD
:10247000704700008438002010B5044694F83700F7
:10248000FFF7C4FF94F8370005490978884203D163
:10249000204600F027F802E0204600F003F810BDC7
:1024A000D600002010B590F8373003EB43030C4CF6
:1024B00004EB83010B683BB901230B81002303610B
:1024C00043610860486009E00B895B1C0B810B6865
:1024D0000361002343610A685061086010BD000079
:1024E0008438002010B590F8373003EB43030B4CD1
:1024F00004EB83010B683BB901230B8100230361CB
:1025000043610860486008E00B895B1C0B81002375
:1025100003614A6842611061486010BD8438002040
:1025200030B5D0E90045AC4218D00468246945684C
:10253000AC4209D1016842684A6100240C615461CF
:1025400011610260416009E0016842680B69002482
:102550005C610C614A6111610360416030BD000043
:102560002DE9F041054695F8370000EB400012498F
:1025700001EB80046F692E6987B946B9002020817C
:102580002060606095F83700FFF752FF0EE0208969
:10259000401E208100207061266007E02089401ED7
:1025A00020813E610EB9676000E0776100206861BC
:1025B0002861BDE8F08100008438002070B5054630
:1025C00000262E480078012800D070BD00BF00BF53
:1025D000FDF73AFF064600BF00BF2C683CB900BFBC
:1025E00000BF3046FDF734FF00BF00BFEDE72448D1
:1025F000844207D100BF00BF3046FDF729FF00BF6E
:1026000000BFE2E7A06D10B1A06D401EA065A06DF7
:1026100038B100BF00BF3046FDF71AFF00BF00BF52
:10262000D3E7D5E90001884207D100BF00BF30469B
:10263000FDF70EFF00BF00BFC7E71248007838B1B2
:1026400000BF00BF3046FDF703FF00BF00BFBCE77F
:102650002846FFF765FF2C68606D18B90A480068C6
:10266000A06501E0606DA06500BF00BF3046FDF7CA
:10267000EFFE00BF00BF00BFA7E70000E40000209E
:10268000B8370020DE000020E00000201FB5002049
:10269000009006E09F490968480001AA0021FFF761
:1026A000E7FA9D4800780128F4D101A8FEF7F6FE6C
:1026B00000279A48006897490968884205D99748D1
:1026C000006894490968B0FBF1F727B9934800689E
:1026D0000A21B0FBF1F71BE100BF00BFFDF7B4FE1C
:1026E000009000BF00BF8E4800688E49086000203F
:1026F0008B49086000BF00BF0098FDF7A9FE00BF2E
:1027000000BF8948006887490968884248D98648D7
:1027100000688649884205D242F210700390012079
:10272000029023E0804800688149884205D24FF436
:102730007A7003900A20029018E07B4800687D4977
:10274000884203D26420039002900FE0764800682C
:102750007949884205D20A2003904FF47A7002909A
:1027600004E00120039042F2107002906E4801686C
:102770000298B1FBF0F86B49039809684843B0FB35
:10278000F8F042F21071081A6C4908806C48008811
:102790000988884207DA694800886949088002E0A8
:1027A000002066490880FEF7F3FE002500BF00BF49
:1027B000FDF74AFE009000BF00BF6248046800BFFA
:1027C00000BF0098FDF744FE00BF00BF26E000BF39
:1027D00000BFFDF739FE009000BF00BF54F89C0F0A
:1027E0006060002044F89C0900BF00BF0098FDF71E
:1027F0002FFE00BF00BFD4F8A000054400BF00BFFB
:10280000FDF722FE009000BF00BFD4F8B84000BF23
:1028100000BF0098FDF71CFE00BF00BF002CD6D102
:102820002DB34248854204D242F2107A4FF001099A
:102830001AE03F48854204D24FF47A7A4FF00A09F1
:1028400012E03C48854203D24FF0640AD1460BE0C7
:102850003948854204D24FF00A0A4FF47A7903E0EE
:102860004FF0010A42F21079B5FBF9FB03E04FF09B
:10287000000A4FF0010B00BF00BFFDF7E5FD00901F
:1028800000BF00BF2F48046800BF00BF0098FDF7DD
:10289000DFFD00BF00BF2AE0D4F8A00000FB0AF073
:1028A000B0FBFBF086B242F21070864200D90646B9
:1028B000A4F88C60B4F88E00B04201DAA4F88E60FF
:1028C00001AB04F1AC02111D2046FEF7D1FF00BFA1
:1028D00000BFFDF7B9FD009000BF00BFD4F8B840BD
:1028E00000BF00BF0098FDF7B3FD00BF00BF002C84
:1028F000D2D115480078012805D10020124908706E
:1029000001A8FEF7CBFD01AA00213846FFF7B0F978
:10291000E2E6000004430000000100201C43000028
:10292000F4000020FC000020F8000020801A0600BF
:1029300000093D00005A62020084D717F000002011
:10294000F200002008010020EE00002010B58AB03F
:10295000044600201F4908601F4908601F4908609D
:102960001F4908701F4908701F48006820B946F6C3
:102970002B6020800AB010BD1C4800681C49096803
:10298000884203D246F62C602080F3E7194800788D
:102990001F2803D346F62A602080EBE7032000219E
:1029A0000591CDE907040691084610490968124AC5
:1029B00012680D4B1B68CDE90132CDE903100D48BB
:1029C000007800230D4A0EA100901248FEF7EAFDA0
:1029D00000BFCFE7F4000020FC000020F80000203A
:1029E00000010020EE00002008430000104300001A
:1029F00018430000004300000C4300008D26000037
:102A000075432F4F532D4949492053746174205405
:102A100061736B00043A002070B504460D4645B161
:102A20002A462146064800F0F9F9032084F83600CA
:102A300002E0022084F836002046FFF791FD70BDC9
:102A40001C0100202DE9F04104460D4600BF002680
:102A500094F8377094F8360008285ED2DFE800F06A
:102A600004191E1F1A1B20212046FFF779FD84F848
:102A7000375094F83700FFF7C9FC2C4800688442AF
:102A800003D12046FFF70EFD02E02046FFF72AFDA6
:102A900045E000BF00BF84F8375040E000BF00BFF2
:102AA00000BF84F8375094F83400082830D2DFE8AB
:102AB00000F02F04302F0A05063100BF00BF20466A
:102AC000FFF7ACFB27E02046FFF7A8FB206BC068B0
:102AD000466AAF4205DD96F83700A84217DC0026AB
:102AE00015E096F83700B84211D13046FFF7F8FAF2
:102AF000054696F83800A84202DA96F8380000E059
:102B00002846054696F83700A84200D1002602E084
:102B100000BF00BF00BF00BF01E0BDE8F08100BF03
:102B20003446002C93D100BFF7E70000400100209D
:102B30000021C0F8B4100949096819B90021C0F88A
:102B4000B81007E005490968C0F8B81003490968DA
:102B5000C1F8B40001490860704700000801002076
:102B60000021044A1160044A1180044A1160018066
:102B700070470000080100200C0100200401002023
:102B800070B5044600202060E060606020616061F4
:102B9000A061E061206224A0A06000206062A062C9
:102BA000E062E065A4F86000002104F16400FFF732
:102BB00073FA002044F8740F6060E060A082206126
:102BC000743C002506E0002104F17C0040F825104B
:102BD000681CC5B2002DF6D0002034346061206737
:102BE0006067E06084F85600E067A0672082A0611B
:102BF000E06120626062A4F85800A4F85A00E06521
:102C000020666066A06620706070A0702020E07072
:102C100020710020A060C4F88000C4F8840004A0E3
:102C2000C4F88800343C70BD3F5461736B000000F1
:102C30002000000008B506480068FEF773FD06E0B6
:102C40006A46002103480068FFF712F800BFF7E763
:102C5000400100201C4300002DE9F84304460F46C4
:102C600090461D464FF0000900BF00BFFDF7ECFB8A
:102C7000814600BF00BF0CB9674804680020288067
:102C800094F8360008286FD2DFE800F004055051B0
:102C90000607525300BF00BF00BF0420012804D024
:102CA000022813D0042833D122E0A06CFF280CD1D5
:102CB00000BF00BF4846FDF7CBFB00BF00BF46F694
:102CC000C55028800020BDE8F88322E04FF6FF7150
:102CD000A06C88420BD100BF00BF4846FDF7B8FB8F
:102CE00000BF00BF46F6C55028800020EBE710E08B
:102CF000A06C401C58B900BF00BF4846FDF7A8FBB8
:102D000000BF00BF46F6C55028800020DBE700E08A
:102D100000BF00BFA06C401CA064A66C00BF00BF39
:102D20004846FDF795FB00BF00BF72E000BF00BF43
:102D300000BF94F83400072817D100231A46214613
:102D40001846CDF80080FFF7F7FAA66C00BF00BF69
:102D50004846FDF77DFB00BF00BF07F40040002898
:102D60004AD1FEF70BFA47E047E00420012804D0DF
:102D7000022812D0042832D121E0A06CFF280BD108
:102D800000BF00BF4846FDF763FB00BF00BF46F62B
:102D9000C5502880002096E722E04FF6FF71A06C16
:102DA00088420BD100BF00BF4846FDF751FB00BF72
:102DB00000BF46F6C5502880002084E710E0A06CD4
:102DC000401C58B900BF00BF4846FDF741FB00BF9B
:102DD00000BF46F6C5502880002074E700E000BF21
:102DE00000BFA06C401CA064A66C00BF00BF48469A
:102DF000FDF72EFB00BF00BF0BE000BF00BF484641
:102E0000FDF726FB00BF00BF46F62D602880002698
:102E100000BF00BF304656E74001002070B51546A0
:102E2000066846B9CD6400268E61CE6108620160F5
:102E30000126868033E0046802682B4624E0D66CC5
:102E40009E421DD3D6696EB9CB640026CE618A61DD
:102E50000862D66CF61AD664D16101608688761C49
:102E600086800CE0D469CB64CC618A610862D66C40
:102E7000F61AD664D161A1618688761C868070BD01
:102E8000D66C9B1B14469269002AD8D1CB64CC61C6
:102E900000268E610862A1618688761C868000BF4C
:102EA000EDE700002DE9F04304460D4691469846B3
:102EB00024480768B9F1040F0CD1EE1B16F5803FCA
:102EC00000D866BB0020E06447F27E20A8F800002E
:102ED000BDE8F083B9F1080F22D1206D381AA8425D
:102EE00003D92E46781920651BE0206D381A2E1A5A
:102EF00016F5803F00D87EB9206D381AB0FBF5F08A
:102F000005FB0050216D084420650020E06447F275
:102F10007E20A8F80000DBE7206D2844206500E053
:102F20002E460020A8F80000012084F8360005484D
:102F30000068381A821921460348FFF76FFF00BF67
:102F4000C6E70000100100201401002030B5026A1D
:102F5000C3698169ABB929B9002414609480C46441
:102F600004621EE00024CC61CC6CC56C2C44CC64A3
:102F700011609488641E948000248461C464046297
:102F80000FE0996121B1CB61CC6CC56C2C44CC6451
:102F90000024C4619488641E948000248461C46405
:102FA000046230BD2DE9F04105460027214E34680A
:102FB000002C3AD0E06CA84204D8E06C2D1A002016
:102FC000E06402E0E06C401BE0642AE0781C87B219
:102FD00094F83600012806D1002084F836002046F7
:102FE000FFF74AFA06E094F83600052802D10420DB
:102FF00084F83600A0693060346814B90020B080CD
:1030000012E0B088401EB0800020E061E06CA84271
:1030100004D8E06C2D1A0020E06402E0E06C401B54
:10302000E064E06C0028D1D000BFF7800020BDE84C
:10303000F0810000140100202DE9F04706464FF012
:1030400000093E4F3C68002C73D0E06CB04204D8BD
:10305000E06C361A0020E06402E0E06C801BE06463
:1030600063E009F101001FFA80F9002594F83400AB
:10307000042802D1206BC068456A0020E065A4F8EE
:1030800060002046FFF71EF994F83600032806D1A9
:103090002046FFF7F1F9002084F8360006E094F8A6
:1030A0003600072802D1042084F83600032084F873
:1030B0003500002084F8340005B395F8370095F802
:1030C000381088421AD095F8370094F837108842A3
:1030D00014D12846FFF704F8804695F8380040459B
:1030E00002DA95F8380000E04046804695F837004F
:1030F000404503D041462846FFF7A4FCA06938604C
:103100003C6814B90020B88012E0B888401EB8802E
:103110000020E061E06CB04204D8E06C361A002078
:10312000E06402E0E06C801BE064E06C002898D072
:1031300000BFA7F806900020BDE8F0871C01002022
:1031400008B5002522E06B46002211461046FEF726
:10315000F5FABDF80000C8B900BF00BFFDF774F96B
:10316000054600BF00BF012409480068401C08490B
:1031700008602046FFF716FF2046FFF75DFF00BFFF
:1031800000BF2846FDF764F900BF00BFDBE7000081
:103190001001002010B58AB00446002020490860C4
:1031A00020490860204908601E498880C8801E495F
:1031B0008880C8801D48006820B947F2122020800E
:1031C0000AB010BD1A4800681A490968884203D23B
:1031D00047F213202080F3E7174800781F2803D315
:1031E00047F211202080EBE70B2000210591CDE96B
:1031F0000704069108460E490A68104909680B4BF6
:103200001B68CDE90131CDE903200B48007800238C
:103210000B4A0CA100901048FEF7C4F900BFCFE79D
:1032200010010020140100201C0100202443000094
:103230002C430000184300002043000028430000F6
:103240004131000075432F4F532D4949492054699E
:10325000636B205461736B00C43A002010B58AB0D0
:10326000044600202E4908602E4908602E49088037
:103270002E48006840B12E4800682C490968B0FB10
:10328000F1F02C49086006E0294800680A21B0FBEB
:10329000F1F02849086027480068274908600020A5
:1032A00026490860224626A12948FDF7D3FD20883B
:1032B00008B10AB010BD2748006818B947F2473076
:1032C0002080F6E72448006824490968884203D230
:1032D00047F248302080ECE7214800781F2803D3CC
:1032E00047F246302080E4E70B2000210591CDE92C
:1032F00007040691184800681A4A1268154B1B68A3
:10330000CDE90132CDE90301154800780023164AC2
:1033100016A100901B48FEF745F900BFC9E7000061
:10332000240100202C010020280100203843000047
:103330001C430000380100203C0100203401002023
:103340004F5320546D72204D757465780000000055
:10335000843B00203C43000044430000184300002D
:103360003443000040430000A133000075432F4F59
:10337000532D4949492054696D6572205461736B1E
:1033800000000000B03B00200EB502A801AB0022F7
:10339000114600900148FDF78DFD0EBD843B0020D5
:1033A0001CB532E001AB6A4600210846FEF7C6F9BB
:1033B000FFF7EAFF15480068401C144908601448EC
:1033C00004681EE001A8FDF729FF2669A069401ED8
:1033D000A061A06980B9A08C022802D1206AA061F6
:1033E00005E0204600F016F8032084F82600A568C2
:1033F00015B12046E168A847344601A8FDF7C2FF91
:1034000000BF002CDED100F027F8CBE7340100200C
:103410002C01002010B50E4B1B68834206D10169B8
:103420000B4B196039B100234B6104E0416902691B
:103430000A6102B15161012380F826300023036143
:103440004361044B1B885B1E024C238010BD0000AF
:103450002C0100202801002008B56A4600210248FE
:10346000FDF7E6FD08BD0000843B00202DED088B34
:1034700084E09FED430B53EC102B434890ED000B81
:1034800051EC100B00F072FD33D24049096D481E1B
:1034900000F01FFC41EC1B0B3B4890ED000B53EC84
:1034A000102B51EC1B0B00F063FC41EC190B37495E
:1034B000096D481E00F00DFC41EC1A0B53EC192B62
:1034C00000F096FD41EC180B00F0D6FB2F49886503
:1034D0000020C8650846006D401E2C4998310860E0
:1034E0002A48006D401E2949C1F89C000846806AA0
:1034F00088629FED230B53EC102B234890ED000BBB
:1035000051EC100B00F0F8FB35D22048006D401E46
:103510001E4988650846006D401EC8651B499031EC
:103520000968481E00F0D5FB41EC1B0B164890EDD6
:10353000000B53EC102B51EC1B0B00F019FC41EC71
:10354000190B1249D1F89010481E00F0C2FB41EC53
:103550001A0B53EC192B00F083F941EC180B00F017
:103560008BFB0A499831086000200849C1F89C008B
:103570000846806A88620648FDF7B0FE79E70000D9
:1035800000000000000000007000002000800240E9
:10359000000000204A48006840F0020048490860E6
:1035A00000BF4848006800F002000028F9D04648F3
:1035B000006840F0F000444908604348203000684B
:1035C00040F0F0004049203108604048006820F099
:1035D000F0003E4908603D481C38006820F0F000CB
:1035E0003A491C39086039480C38006840F0F0004E
:1035F00036490C3908603548001D00683349091DFB
:10360000096889B2324A114408433049091D0860EB
:103610003048006E20F4602040F480102D49086688
:1036200027483830006840F00100254938310860EB
:1036300000BF24483830006800F001000028F8D0AE
:103640000020254908640864234980310860C820A7
:103650002149086640F608404866C820C1F8A00025
:1036600040F608401C49A43108600F201A49C86080
:1036700040F6FF70086518499031086040101649FF
:1036800088654FF4CD70C86540F6FC7012499831DA
:103690000860A4201049C1F89C000846006C40F066
:1036A000010008640846D0F8800040F00100C1F82D
:1036B00080000846806840F00F0088607047000076
:1036C00008E60F4008EA0F4000540040285500402B
:1036D0000000444400E00F40008002401B4909689C
:1036E00041F47001194A116019491A4A11671A49BF
:1036F00011661A4911661A491167002000E0401C42
:10370000B0F57A7FFBD31749124A11661649116743
:10371000002000E0401CB0F57A7FFBD313490D4A2E
:10372000116600BF0B49096D01F040014029F9D134
:103730000F49084A11664FF0C0711167002000E080
:10374000401C42F210718842FAD3704788ED00E0C5
:103750001028800700E00F40D13A8E07422D9E01CD
:1037600000288001420D9E0100088001420DDE010B
:103770004205DE01014640F2FF70814201D3012083
:1037800070470020FCE7000000B589B0FFF702FF9A
:103790001148FDF723FA104A0A210120FDF76CFDBC
:1037A0000D48032100220592CDE9062108908021D1
:1037B0000A4BCDE9013201201346CDE903120090F6
:1037C000074A08A10C48FDF7EDFE0348FDF718FE77
:1037D000002009B000BD0000000000200807002004
:1037E0005907000041505020535441525445522033
:1037F0005441534B000000004801002021F00042DA
:10380000A2F16052B2F5801F01F0004328BFD2F14F
:103810007F6C0BD95FEA001C43EAC20242EB507096
:1038200018BF704728BF20F001007047B2F5801F15
:10383000BCBF184670474FEA410C1CF5001F02D26E
:10384000084600F035BD70B500F03CFB0000008973
:10385000FFF7F6BF4FF00040A0F580007047000072
:1038600010B591EA030F48BF83F0004300F1C8830D
:10387000841A71EB030C05D2121943EB0C03001BE5
:1038800061EB0C01DFF824E14FEA1154A4EB135C67
:103890001EEA430F18BF9EEA445F73D023EA0E036B
:1038A000DCF1200E21EA045143F4801332D322FAD2
:1038B0000CFE10EB0E0023FA0CFE41EB0E01CCF1D6
:1038C000200E03FA0EFE10EB0E0051F10001B1F5CF
:1038D000801FCCF1200E32D201EB045112FA0EF20D
:1038E000BDE8104058BF7047401C38BF5FEA420235
:1038F00018BF7047002814BF20F0010041F10001FB
:103900004FEA410313F5001F38BF7047A1F1C041D2
:1039100000F026BB012A43EB0302ACF1200CDCF1E2
:103920001F0E32BF4FF0000E23FA0CF310EB030012
:1039300041EB0451B4EB115FD0D0A1EB045101F580
:10394000801149085FEA300001EB04510ED350F1B9
:10395000000038BF12FA0EFE08D1BDE81040C9E7DA
:10396000401C38BF5FEA4202CAD1C3E7BDE810403D
:103970004FEA410313F5001F38BF7047A1F1C04162
:1039800000F0EEBA9EEA445F08D011EA5E0FBDE88F
:10399000104004BF01F0004100207047BDE8104016
:1039A00070B500F08FFA00BF64FBBE3E0000E0FF80
:1039B000491058BFC1F140415B1058BFC3F14043AB
:1039C0008B42EFF3008070472DE9C04130B4DFF83F
:1039D000A0C23CEA111418BF3CEA131400F0EC80BA
:1039E00081EA03051CEA111444EAD57418BF1CEAE5
:1039F000131500F0C780A4EB05044FF0004545EA1D
:103A0000C12145EAC32341EA505143EA525304F12C
:103A10007F74994204F500344FEAC0204FEAC22275
:103A200008BF904200F09C804FEA13650FF24016E9
:103A3000765D4FEA134506FB05F7C7F1807706FB75
:103A400007F74FEAD737A7FB03687642C8F58038F7
:103A5000A7FB06CE38BFA8F1010807FB08E64FF028
:103A6000000EA6FB028CE6FB03CEDCF1000CCEF1CF
:103A7000004E38BFAEF1010EA6FB0C584FF0000708
:103A80004FF00005E6FB0E87A1FB08C6A0FB07CEA2
:103A900016EB0E0645F10005E1FB076515F1E04E5A
:103AA0007EBFA4F580345FEA46066D4116F18007BB
:103AB00045F100054FEA17274FEA066647EA056712
:103AC000A6F1DE46B6F1805F4FEA15251FD93846CC
:103AD00024F0010C05EBC471BCF1FE6F01EB0C117D
:103AE00002D8F0BCBDE8008124425CBF01F5801E15
:103AF0009EEAC47F02D4F0BCBDE80081244238D4E1
:103B0000F0BCA1F1C041BDE8004100F029BA4FEA84
:103B1000D22242EA43524FEAD323A7FB02864FEA5E
:103B2000D02040EA415007FB03661EEA0E0F4FEA21
:103B3000D12105FB026658BFA6EB0056B6EB005636
:103B40004FEA520E4EEAC37E18EB0E0E56EB530EA2
:103B5000BDD518EB02085E417F1C55F10005B6E7A4
:103B60004FF480154FF000074FF000064FF00008AB
:103B7000ADE7F0BC4FF0000001F1C04101F00041A1
:103B8000BDE8008111EA0C1F0CEA131500D00CE00F
:103B900013EA0C1F00F025804FF00000F0BC81EA12
:103BA000030101F00041BDE80081F0BCBDE8004127
:103BB00081EA030100F0D4B9F0BCBDE8004170B562
:103BC00000F080F9097EFC3E00F007B881EA0301AD
:103BD0004FF0000001F00041704781EA030100F05E
:103BE000BFB9F0BCBDE800414FF00000214970476B
:103BF000FFFDFBF9F7F5F4F2F0EEEDEBE9E8E6E4B2
:103C0000E3E1E0DEDDDBDAD8D7D5D4D3D1D0CFCD38
:103C1000CCCBCAC8C7C6C5C4C2C1C0BFBEBDBCBB71
:103C2000BAB9B8B7B6B5B4B3B2B1B0AFAEADACAB6C
:103C3000AAA9A8A8A7A6A5A4A3A3A2A1A09F9F9E46
:103C40009D9C9C9B9A9999989797969595949393F8
:103C5000929191908F8F8E8E8D8C8C8B8B8A89898F
:103C60008888878786858584848383828281818012
:103C70000000FF070000F87F4FEA1153A3F58063AF
:103C8000D3F11E03A8BFD3F1200C08DB4FF0004294
:103C900042EAC12252EA505232FA03F07047094216
:103CA0000BD4102BC4BF0020704703F5787CBCF107
:103CB000FF3F05D04FF0FF3070474FF000007047D6
:103CC00070B500F0FFF800BF4992248000207047D3
:103CD000F0E7B0FA80F310FA03F10AD0C3F11D0344
:103CE00003F580634FEA41504FEA035202EBD121C2
:103CF00070474FF00000704751EA030C17D41CF5D1
:103D0000801F58BFBCF5801F00F10680994218BF84
:103D1000704708BF9042704707D711F5801F58BF02
:103D200013F5801F19D499427047894270471CF5DA
:103D3000801F08D5BCF5801FF7D58B4218BF704790
:103D400008BF824270474FF4001C1CEB410F38BF84
:103D50001CEB430F01D28B42704770B500F0B2F8F4
:103D6000922449004FF000514FF08053FFF720BEDE
:103D7000DFF848C170B51CEA111E1EBF1CEA1315FE
:103D80009EEA0C0F95EA0C0F00F06F8081EA0304A5
:103D900023EA4C134EEAD47E21EA4C1141F48011FF
:103DA00043F48013AE44A1FB024CA0FB0365AEF1CB
:103DB0007F7E361955EB0C05A1FB034C4CF100033B
:103DC000A0FB021C16EB0C06654153F100030942EF
:103DD00018BF46F0010613F4007F0BD14FEA033100
:103DE0004FEA0530340341EA155140EA16506FF0AE
:103DF00003020AE04FEAC3214FEAC520F40241EA78
:103E0000555140EA56506FF0020202EB2E4201EB90
:103E1000025585EACE710AD05FEA440C18BF24F03F
:103E2000004450F1000041F1000120EAD47040F25A
:103E3000FE7C624500D270BDA84214BF4FF08044A2
:103E40004FF04044002E08BF0024BEF1806FA8BF91
:103E5000A1F1C041BDE8704080F282804FF00000C7
:103E600001F1C04101F0004170479EEA0C0F0CEADD
:103E7000131518BF95EA0C0F06D04FF0000081EA29
:103E8000030E0EF0004170BD00F01CF88900013EE9
:103E900000F007B800F009B84FEA430C5FEA5C5C39
:103EA00008D081EA030100F05BB84FEA410C5FEAF9
:103EB0005C5CF6D14FF00000014970470000FF073D
:103EC0000000F87F0EF1020E2EF0030E5EF8046B78
:103ED000364205D4012A43EB030515F5001F12D81D
:103EE000012841EB010C1CF5001F0CD80ED14FEA44
:103EF000D17C15F5001F0CEB4C0C0CF1020C08BF2B
:103F00004CEBD37C04E04FF0080C01E04FEAD37C8B
:103F10000CEB4C0526FA05F606F00706B6F1040C84
:103F200006D20EEB860CBDE870404CF0010C6047E9
:103F3000DFE80CF0090B02024FF000414FF00000E7
:103F4000A1F5002170BD19461046012851EB01046E
:103F500018BFD4F5001484BF002001F0004170BDEB
:103F60000808A0F500114FEA3101704753EA010C2F
:103F700017D41CF5801F58BFBCF5801F00F10680C8
:103F80008B4218BF704708BF8242704707D713F5AE
:103F9000801F58BF11F5801F19D48B4270479B4278
:103FA00070471CF5801F08D5BCF5801FF7D59942D6
:103FB00018BF704708BF904270474FF4001C1CEBBD
:103FC000430F38BF1CEB410F01D2994270470FB429
:103FD0000CBC03BCFFF7C1BE91EA030F10B581F022
:103FE00000413FF545AC83F0004300F009B8000004
:103FF00010B591EA030F48BF83F000433FF538AC9A
:10400000841A71EB030C07D212198CF0004C43EBAD
:104010000C03001B61EB0C01DFF8A4E14FEA115423
:10402000A4EB135C1EEA430F18BF9EEA445F00F046
:10403000B08023EA6E03524221EA0451C3EB6E03BF
:1040400038BF5B1EDCF1200E25D322FA0CFE10EBEC
:104050000E0043FA0CFE41EB0E01CCF1200E03FAE8
:104060000EFE10EB0E0051F10001CCF1200E29D410
:1040700012FA0EF201EB0451BDE8104058BF704730
:10408000401C1CBFB2F1004F704700280CBF491CF8
:1040900020F00100704712EB020E43EB030218BF41
:1040A0004FF0010E4EEA4202ACF1200CDCF11E0E84
:1040B00054D943FA0CFE10EB0E0051F1FF31CCF154
:1040C0001E0ED5D50EF1010E12FA0EFE404141EB47
:1040D000010101EB445C5FEA5C5C10D910EBDE701F
:1040E00001EB045138BFBEF1004FBDE8104018BFCE
:1040F000704700280CBF491C20F00100704730D2E7
:104100004FEAD42C11F5001124F400641BD0B1FA4D
:1041100081F20B3AA41AA41ED2F12003914030FA86
:1041200003F31943904001EBCC71002C01EB0451D7
:10413000BDE81040A8BF704701F1C0414FF000003A
:1041400001F000417047B0FA80F310FA03F100D19A
:1041500010BDE41A173C4805C90AE4E701EB045115
:1041600010BD491001EB0451BDE810404FEA30008A
:1041700002E04FF0000170474A0008BF0042F8D04B
:10418000B2F5001F28BF704701F000414FF000005A
:1041900070479EEA445F07D011EA5E0FBDE8104009
:1041A00004BF002100207047BDE8104070B5FFF744
:1041B00089FE00BF40DFF63E83F0004110467047A5
:1041C0000000E0FF43004FEAD30C4FEA3C0C4340B1
:1041D0001FBF40070CF1605113F0FE4F70471CF0F9
:1041E000006F03D100200CF0004170470CF0004339
:1041F00043EA507010B540EACC0000F00EF800BF62
:10420000000000924FEA0001FFF7AABE4FF0004104
:104210004FF00000A1F5002170470EF1020E2EF0C4
:10422000030E5EF8044B244204D44FEA4102B2F17B
:104230007F4F11D84FEA4003B3F17F4F0CD80ED116
:104240004FEAD07CB2F17F4F0CEB4C0C0CF1020C1E
:1042500008BF4CEBD17C04E04FF0080C01E04FEAC2
:10426000D17C0CEB4C0324FA03F404F00704B4F102
:10427000040C06D20EEB840CBDE810404CF0010C8F
:104280006047DFE80CF0070802024FF00040A0F59D
:10429000800010BD0846420018BFD2F1807288BF6E
:1042A00000F0004010BD4FF04070E1EE100A704782
:1042B000FF2141EAD050C00570470000080F0020E0
:1042C00019000000000100000004000000000000D0
:1042D00000000000000000000000000000000000DE
:1042E0000000000000000000081300200002000091
:1042F0000008000064000000B0040000081B00205B
:104300000B0000000A000000B81F0020330000006E
:10431000000200000008000040000000E803000068
:104320000A000000B827002033000000000200004F
:10433000000800000B0000000A000000B82F002059
:10434000330000000002000000080000B028000058
:104350000100010078563412000100000000000046
:10436000000000000000000000000000000000004D
:10437000000000000000000000000000000000003D
:104380000000000024000400000000000000000005
:10439000000000000000000000000000000000001D
:1043A00000000000000000000000000001002000EC
:1043B00001000C000C0010000000000000000000D4
:1043C00000000000000000000000000000000000ED
:1043D00000000000000000000000000000000000DD
:1043E00000000000010000002C0000001C000C0078
:1043F0002000200004000400000000000000000075
:1044000000000000000000000000000000000000AC
:10441000000000000000000000000000000000009C
:104420000000000000000000010000013000010059
:10443000000000000000000000000000000000007C
:10444000000000000000000000000000000000006C
:10445000000000000100010124000C0080010000A8
:10446000040101010001000101000101C000080078
:10447000010000000000000000000000000000003B
:10448000000000000000000000000000000000002C
:10449000000000000000000000000000000000001C
:1044A00000000000010030002477000056050000E5
:1044B000D04400000000002048010000A8020000D5
:1044C000E044000048010020883D0000E4020000B4
:1044D00051C2FA054B17B7D13903E9F03F0000008C
:040000050000032DC7
:00000001FF
